{
  "_format": "hh-sol-artifact-1",
  "contractName": "KietToken",
  "sourceName": "contracts/KietToken.sol",
  "abi": [
    {
      "inputs": [],
      "stateMutability": "nonpayable",
      "type": "constructor"
    },
    {
      "inputs": [
        {
          "internalType": "address",
          "name": "sender",
          "type": "address"
        },
        {
          "internalType": "uint256",
          "name": "tokenId",
          "type": "uint256"
        },
        {
          "internalType": "address",
          "name": "owner",
          "type": "address"
        }
      ],
      "name": "ERC721IncorrectOwner",
      "type": "error"
    },
    {
      "inputs": [
        {
          "internalType": "address",
          "name": "operator",
          "type": "address"
        },
        {
          "internalType": "uint256",
          "name": "tokenId",
          "type": "uint256"
        }
      ],
      "name": "ERC721InsufficientApproval",
      "type": "error"
    },
    {
      "inputs": [
        {
          "internalType": "address",
          "name": "approver",
          "type": "address"
        }
      ],
      "name": "ERC721InvalidApprover",
      "type": "error"
    },
    {
      "inputs": [
        {
          "internalType": "address",
          "name": "operator",
          "type": "address"
        }
      ],
      "name": "ERC721InvalidOperator",
      "type": "error"
    },
    {
      "inputs": [
        {
          "internalType": "address",
          "name": "owner",
          "type": "address"
        }
      ],
      "name": "ERC721InvalidOwner",
      "type": "error"
    },
    {
      "inputs": [
        {
          "internalType": "address",
          "name": "receiver",
          "type": "address"
        }
      ],
      "name": "ERC721InvalidReceiver",
      "type": "error"
    },
    {
      "inputs": [
        {
          "internalType": "address",
          "name": "sender",
          "type": "address"
        }
      ],
      "name": "ERC721InvalidSender",
      "type": "error"
    },
    {
      "inputs": [
        {
          "internalType": "uint256",
          "name": "tokenId",
          "type": "uint256"
        }
      ],
      "name": "ERC721NonexistentToken",
      "type": "error"
    },
    {
      "inputs": [],
      "name": "EnforcedPause",
      "type": "error"
    },
    {
      "inputs": [],
      "name": "ExpectedPause",
      "type": "error"
    },
    {
      "inputs": [
        {
          "internalType": "address",
          "name": "owner",
          "type": "address"
        }
      ],
      "name": "OwnableInvalidOwner",
      "type": "error"
    },
    {
      "inputs": [
        {
          "internalType": "address",
          "name": "account",
          "type": "address"
        }
      ],
      "name": "OwnableUnauthorizedAccount",
      "type": "error"
    },
    {
      "anonymous": false,
      "inputs": [
        {
          "indexed": true,
          "internalType": "address",
          "name": "owner",
          "type": "address"
        },
        {
          "indexed": true,
          "internalType": "address",
          "name": "approved",
          "type": "address"
        },
        {
          "indexed": true,
          "internalType": "uint256",
          "name": "tokenId",
          "type": "uint256"
        }
      ],
      "name": "Approval",
      "type": "event"
    },
    {
      "anonymous": false,
      "inputs": [
        {
          "indexed": true,
          "internalType": "address",
          "name": "owner",
          "type": "address"
        },
        {
          "indexed": true,
          "internalType": "address",
          "name": "operator",
          "type": "address"
        },
        {
          "indexed": false,
          "internalType": "bool",
          "name": "approved",
          "type": "bool"
        }
      ],
      "name": "ApprovalForAll",
      "type": "event"
    },
    {
      "anonymous": false,
      "inputs": [
        {
          "indexed": false,
          "internalType": "uint256",
          "name": "_fromTokenId",
          "type": "uint256"
        },
        {
          "indexed": false,
          "internalType": "uint256",
          "name": "_toTokenId",
          "type": "uint256"
        }
      ],
      "name": "BatchMetadataUpdate",
      "type": "event"
    },
    {
      "anonymous": false,
      "inputs": [
        {
          "indexed": false,
          "internalType": "uint256",
          "name": "_tokenId",
          "type": "uint256"
        }
      ],
      "name": "MetadataUpdate",
      "type": "event"
    },
    {
      "anonymous": false,
      "inputs": [
        {
          "indexed": true,
          "internalType": "address",
          "name": "to",
          "type": "address"
        },
        {
          "indexed": true,
          "internalType": "uint256",
          "name": "tokenId",
          "type": "uint256"
        },
        {
          "indexed": false,
          "internalType": "string",
          "name": "uri",
          "type": "string"
        }
      ],
      "name": "Minted",
      "type": "event"
    },
    {
      "anonymous": false,
      "inputs": [
        {
          "indexed": true,
          "internalType": "address",
          "name": "previousOwner",
          "type": "address"
        },
        {
          "indexed": true,
          "internalType": "address",
          "name": "newOwner",
          "type": "address"
        }
      ],
      "name": "OwnershipTransferred",
      "type": "event"
    },
    {
      "anonymous": false,
      "inputs": [
        {
          "indexed": false,
          "internalType": "address",
          "name": "account",
          "type": "address"
        }
      ],
      "name": "Paused",
      "type": "event"
    },
    {
      "anonymous": false,
      "inputs": [
        {
          "indexed": true,
          "internalType": "address",
          "name": "from",
          "type": "address"
        },
        {
          "indexed": true,
          "internalType": "address",
          "name": "to",
          "type": "address"
        },
        {
          "indexed": true,
          "internalType": "uint256",
          "name": "tokenId",
          "type": "uint256"
        }
      ],
      "name": "Transfer",
      "type": "event"
    },
    {
      "anonymous": false,
      "inputs": [
        {
          "indexed": false,
          "internalType": "address",
          "name": "account",
          "type": "address"
        }
      ],
      "name": "Unpaused",
      "type": "event"
    },
    {
      "inputs": [
        {
          "internalType": "address",
          "name": "to",
          "type": "address"
        },
        {
          "internalType": "uint256",
          "name": "tokenId",
          "type": "uint256"
        }
      ],
      "name": "approve",
      "outputs": [],
      "stateMutability": "nonpayable",
      "type": "function"
    },
    {
      "inputs": [
        {
          "internalType": "address",
          "name": "owner",
          "type": "address"
        }
      ],
      "name": "balanceOf",
      "outputs": [
        {
          "internalType": "uint256",
          "name": "",
          "type": "uint256"
        }
      ],
      "stateMutability": "view",
      "type": "function"
    },
    {
      "inputs": [
        {
          "internalType": "uint256",
          "name": "tokenId",
          "type": "uint256"
        }
      ],
      "name": "getApproved",
      "outputs": [
        {
          "internalType": "address",
          "name": "",
          "type": "address"
        }
      ],
      "stateMutability": "view",
      "type": "function"
    },
    {
      "inputs": [
        {
          "internalType": "address",
          "name": "owner",
          "type": "address"
        },
        {
          "internalType": "address",
          "name": "operator",
          "type": "address"
        }
      ],
      "name": "isApprovedForAll",
      "outputs": [
        {
          "internalType": "bool",
          "name": "",
          "type": "bool"
        }
      ],
      "stateMutability": "view",
      "type": "function"
    },
    {
      "inputs": [],
      "name": "name",
      "outputs": [
        {
          "internalType": "string",
          "name": "",
          "type": "string"
        }
      ],
      "stateMutability": "view",
      "type": "function"
    },
    {
      "inputs": [],
      "name": "owner",
      "outputs": [
        {
          "internalType": "address",
          "name": "",
          "type": "address"
        }
      ],
      "stateMutability": "view",
      "type": "function"
    },
    {
      "inputs": [
        {
          "internalType": "uint256",
          "name": "tokenId",
          "type": "uint256"
        }
      ],
      "name": "ownerOf",
      "outputs": [
        {
          "internalType": "address",
          "name": "",
          "type": "address"
        }
      ],
      "stateMutability": "view",
      "type": "function"
    },
    {
      "inputs": [],
      "name": "pause",
      "outputs": [],
      "stateMutability": "nonpayable",
      "type": "function"
    },
    {
      "inputs": [],
      "name": "paused",
      "outputs": [
        {
          "internalType": "bool",
          "name": "",
          "type": "bool"
        }
      ],
      "stateMutability": "view",
      "type": "function"
    },
    {
      "inputs": [
        {
          "internalType": "string",
          "name": "uri",
          "type": "string"
        }
      ],
      "name": "publicMint",
      "outputs": [
        {
          "internalType": "uint256",
          "name": "",
          "type": "uint256"
        }
      ],
      "stateMutability": "payable",
      "type": "function"
    },
    {
      "inputs": [],
      "name": "renounceOwnership",
      "outputs": [],
      "stateMutability": "nonpayable",
      "type": "function"
    },
    {
      "inputs": [
        {
          "internalType": "address",
          "name": "to",
          "type": "address"
        },
        {
          "internalType": "string",
          "name": "uri",
          "type": "string"
        }
      ],
      "name": "safeMint",
      "outputs": [
        {
          "internalType": "uint256",
          "name": "",
          "type": "uint256"
        }
      ],
      "stateMutability": "nonpayable",
      "type": "function"
    },
    {
      "inputs": [
        {
          "internalType": "address",
          "name": "from",
          "type": "address"
        },
        {
          "internalType": "address",
          "name": "to",
          "type": "address"
        },
        {
          "internalType": "uint256",
          "name": "tokenId",
          "type": "uint256"
        }
      ],
      "name": "safeTransferFrom",
      "outputs": [],
      "stateMutability": "nonpayable",
      "type": "function"
    },
    {
      "inputs": [
        {
          "internalType": "address",
          "name": "from",
          "type": "address"
        },
        {
          "internalType": "address",
          "name": "to",
          "type": "address"
        },
        {
          "internalType": "uint256",
          "name": "tokenId",
          "type": "uint256"
        },
        {
          "internalType": "bytes",
          "name": "data",
          "type": "bytes"
        }
      ],
      "name": "safeTransferFrom",
      "outputs": [],
      "stateMutability": "nonpayable",
      "type": "function"
    },
    {
      "inputs": [
        {
          "internalType": "address",
          "name": "operator",
          "type": "address"
        },
        {
          "internalType": "bool",
          "name": "approved",
          "type": "bool"
        }
      ],
      "name": "setApprovalForAll",
      "outputs": [],
      "stateMutability": "nonpayable",
      "type": "function"
    },
    {
      "inputs": [
        {
          "internalType": "bytes4",
          "name": "interfaceId",
          "type": "bytes4"
        }
      ],
      "name": "supportsInterface",
      "outputs": [
        {
          "internalType": "bool",
          "name": "",
          "type": "bool"
        }
      ],
      "stateMutability": "view",
      "type": "function"
    },
    {
      "inputs": [],
      "name": "symbol",
      "outputs": [
        {
          "internalType": "string",
          "name": "",
          "type": "string"
        }
      ],
      "stateMutability": "view",
      "type": "function"
    },
    {
      "inputs": [
        {
          "internalType": "uint256",
          "name": "tokenId",
          "type": "uint256"
        }
      ],
      "name": "tokenURI",
      "outputs": [
        {
          "internalType": "string",
          "name": "",
          "type": "string"
        }
      ],
      "stateMutability": "view",
      "type": "function"
    },
    {
      "inputs": [
        {
          "internalType": "address",
          "name": "from",
          "type": "address"
        },
        {
          "internalType": "address",
          "name": "to",
          "type": "address"
        },
        {
          "internalType": "uint256",
          "name": "tokenId",
          "type": "uint256"
        }
      ],
      "name": "transferFrom",
      "outputs": [],
      "stateMutability": "nonpayable",
      "type": "function"
    },
    {
      "inputs": [
        {
          "internalType": "address",
          "name": "newOwner",
          "type": "address"
        }
      ],
      "name": "transferOwnership",
      "outputs": [],
      "stateMutability": "nonpayable",
      "type": "function"
    },
    {
      "inputs": [],
      "name": "unpause",
      "outputs": [],
      "stateMutability": "nonpayable",
      "type": "function"
    }
  ],
  "bytecode": "0x608060405234801561001057600080fd5b50336040518060400160405280600981526020017f4b696574546f6b656e00000000000000000000000000000000000000000000008152506040518060400160405280600381526020017f4b544b0000000000000000000000000000000000000000000000000000000000815250816000908161008d919061043d565b50806001908161009d919061043d565b505050600073ffffffffffffffffffffffffffffffffffffffff168173ffffffffffffffffffffffffffffffffffffffff16036101125760006040517f1e4fbdf70000000000000000000000000000000000000000000000000000000081526004016101099190610550565b60405180910390fd5b6101218161012760201b60201c565b5061056b565b6000600760019054906101000a900473ffffffffffffffffffffffffffffffffffffffff16905081600760016101000a81548173ffffffffffffffffffffffffffffffffffffffff021916908373ffffffffffffffffffffffffffffffffffffffff1602179055508173ffffffffffffffffffffffffffffffffffffffff168173ffffffffffffffffffffffffffffffffffffffff167f8be0079c531659141344cd1fd0a4f28419497f9722a3daafe3b4186f6b6457e060405160405180910390a35050565b600081519050919050565b7f4e487b7100000000000000000000000000000000000000000000000000000000600052604160045260246000fd5b7f4e487b7100000000000000000000000000000000000000000000000000000000600052602260045260246000fd5b6000600282049050600182168061026e57607f821691505b60208210810361028157610280610227565b5b50919050565b60008190508160005260206000209050919050565b60006020601f8301049050919050565b600082821b905092915050565b6000600883026102e97fffffffffffffffffffffffffffffffffffffffffffffffffffffffffffffffff826102ac565b6102f386836102ac565b95508019841693508086168417925050509392505050565b6000819050919050565b6000819050919050565b600061033a6103356103308461030b565b610315565b61030b565b9050919050565b6000819050919050565b6103548361031f565b61036861036082610341565b8484546102b9565b825550505050565b600090565b61037d610370565b61038881848461034b565b505050565b5b818110156103ac576103a1600082610375565b60018101905061038e565b5050565b601f8211156103f1576103c281610287565b6103cb8461029c565b810160208510156103da578190505b6103ee6103e68561029c565b83018261038d565b50505b505050565b600082821c905092915050565b6000610414600019846008026103f6565b1980831691505092915050565b600061042d8383610403565b9150826002028217905092915050565b610446826101ed565b67ffffffffffffffff81111561045f5761045e6101f8565b5b6104698254610256565b6104748282856103b0565b600060209050601f8311600181146104a75760008415610495578287015190505b61049f8582610421565b865550610507565b601f1984166104b586610287565b60005b828110156104dd578489015182556001820191506020850194506020810190506104b8565b868310156104fa57848901516104f6601f891682610403565b8355505b6001600288020188555050505b505050505050565b600073ffffffffffffffffffffffffffffffffffffffff82169050919050565b600061053a8261050f565b9050919050565b61054a8161052f565b82525050565b60006020820190506105656000830184610541565b92915050565b612b8c8061057a6000396000f3fe60806040526004361061012a5760003560e01c8063715018a6116100ab578063b3d7acf91161006f578063b3d7acf9146103b8578063b88d4fde146103e8578063c87b56dd14610411578063d204c45e1461044e578063e985e9c51461048b578063f2fde38b146104c85761012a565b8063715018a61461030b5780638456cb59146103225780638da5cb5b1461033957806395d89b4114610364578063a22cb4651461038f5761012a565b80633f4ba83a116100f25780633f4ba83a1461022657806342842e0e1461023d5780635c975abb146102665780636352211e1461029157806370a08231146102ce5761012a565b806301ffc9a71461012f57806306fdde031461016c578063081812fc14610197578063095ea7b3146101d457806323b872dd146101fd575b600080fd5b34801561013b57600080fd5b5061015660048036038101906101519190611f09565b6104f1565b6040516101639190611f51565b60405180910390f35b34801561017857600080fd5b50610181610503565b60405161018e9190611ffc565b60405180910390f35b3480156101a357600080fd5b506101be60048036038101906101b99190612054565b610595565b6040516101cb91906120c2565b60405180910390f35b3480156101e057600080fd5b506101fb60048036038101906101f69190612109565b6105b1565b005b34801561020957600080fd5b50610224600480360381019061021f9190612149565b6105c7565b005b34801561023257600080fd5b5061023b6106c9565b005b34801561024957600080fd5b50610264600480360381019061025f9190612149565b6106db565b005b34801561027257600080fd5b5061027b6106fb565b6040516102889190611f51565b60405180910390f35b34801561029d57600080fd5b506102b860048036038101906102b39190612054565b610712565b6040516102c591906120c2565b60405180910390f35b3480156102da57600080fd5b506102f560048036038101906102f0919061219c565b610724565b60405161030291906121d8565b60405180910390f35b34801561031757600080fd5b506103206107de565b005b34801561032e57600080fd5b506103376107f2565b005b34801561034557600080fd5b5061034e610804565b60405161035b91906120c2565b60405180910390f35b34801561037057600080fd5b5061037961082e565b6040516103869190611ffc565b60405180910390f35b34801561039b57600080fd5b506103b660048036038101906103b1919061221f565b6108c0565b005b6103d260048036038101906103cd9190612394565b6108d6565b6040516103df91906121d8565b60405180910390f35b3480156103f457600080fd5b5061040f600480360381019061040a919061247e565b6109a9565b005b34801561041d57600080fd5b5061043860048036038101906104339190612054565b6109ce565b6040516104459190611ffc565b60405180910390f35b34801561045a57600080fd5b5061047560048036038101906104709190612501565b6109e0565b60405161048291906121d8565b60405180910390f35b34801561049757600080fd5b506104b260048036038101906104ad919061255d565b610a23565b6040516104bf9190611f51565b60405180910390f35b3480156104d457600080fd5b506104ef60048036038101906104ea919061219c565b610ab7565b005b60006104fc82610b3d565b9050919050565b606060008054610512906125cc565b80601f016020809104026020016040519081016040528092919081815260200182805461053e906125cc565b801561058b5780601f106105605761010080835404028352916020019161058b565b820191906000526020600020905b81548152906001019060200180831161056e57829003601f168201915b5050505050905090565b60006105a082610b9e565b506105aa82610c26565b9050919050565b6105c382826105be610c63565b610c6b565b5050565b600073ffffffffffffffffffffffffffffffffffffffff168273ffffffffffffffffffffffffffffffffffffffff16036106395760006040517f64a0ae9200000000000000000000000000000000000000000000000000000000815260040161063091906120c2565b60405180910390fd5b600061064d8383610648610c63565b610c7d565b90508373ffffffffffffffffffffffffffffffffffffffff168173ffffffffffffffffffffffffffffffffffffffff16146106c3578382826040517f64283d7b0000000000000000000000000000000000000000000000000000000081526004016106ba939291906125fd565b60405180910390fd5b50505050565b6106d1610c93565b6106d9610d1a565b565b6106f6838383604051806020016040528060008152506109a9565b505050565b6000600760009054906101000a900460ff16905090565b600061071d82610b9e565b9050919050565b60008073ffffffffffffffffffffffffffffffffffffffff168273ffffffffffffffffffffffffffffffffffffffff16036107975760006040517f89c62b6400000000000000000000000000000000000000000000000000000000815260040161078e91906120c2565b60405180910390fd5b600360008373ffffffffffffffffffffffffffffffffffffffff1673ffffffffffffffffffffffffffffffffffffffff168152602001908152602001600020549050919050565b6107e6610c93565b6107f06000610d7d565b565b6107fa610c93565b610802610e43565b565b6000600760019054906101000a900473ffffffffffffffffffffffffffffffffffffffff16905090565b60606001805461083d906125cc565b80601f0160208091040260200160405190810160405280929190818152602001828054610869906125cc565b80156108b65780601f1061088b576101008083540402835291602001916108b6565b820191906000526020600020905b81548152906001019060200180831161089957829003601f168201915b5050505050905090565b6108d26108cb610c63565b8383610ea6565b5050565b600066038d7ea4c68000341015610922576040517f08c379a0000000000000000000000000000000000000000000000000000000008152600401610919906126a6565b60405180910390fd5b600060086000815480929190610937906126f5565b9190505590506109473382611015565b6109518184611033565b803373ffffffffffffffffffffffffffffffffffffffff167fe7cd4ce7f2a465edc730269a1305e8a48bad821e8fb7e152ec413829c01a53c4856040516109989190611ffc565b60405180910390a380915050919050565b6109b48484846105c7565b6109c86109bf610c63565b8585858561108f565b50505050565b60606109d982611240565b9050919050565b60006109ea610c93565b6000600860008154809291906109ff906126f5565b919050559050610a0f8482611015565b610a198184611033565b8091505092915050565b6000600560008473ffffffffffffffffffffffffffffffffffffffff1673ffffffffffffffffffffffffffffffffffffffff16815260200190815260200160002060008373ffffffffffffffffffffffffffffffffffffffff1673ffffffffffffffffffffffffffffffffffffffff16815260200190815260200160002060009054906101000a900460ff16905092915050565b610abf610c93565b600073ffffffffffffffffffffffffffffffffffffffff168173ffffffffffffffffffffffffffffffffffffffff1603610b315760006040517f1e4fbdf7000000000000000000000000000000000000000000000000000000008152600401610b2891906120c2565b60405180910390fd5b610b3a81610d7d565b50565b6000634906490660e01b7bffffffffffffffffffffffffffffffffffffffffffffffffffffffff1916827bffffffffffffffffffffffffffffffffffffffffffffffffffffffff19161480610b975750610b9682611353565b5b9050919050565b600080610baa83611435565b9050600073ffffffffffffffffffffffffffffffffffffffff168173ffffffffffffffffffffffffffffffffffffffff1603610c1d57826040517f7e273289000000000000000000000000000000000000000000000000000000008152600401610c1491906121d8565b60405180910390fd5b80915050919050565b60006004600083815260200190815260200160002060009054906101000a900473ffffffffffffffffffffffffffffffffffffffff169050919050565b600033905090565b610c788383836001611472565b505050565b6000610c8a848484611637565b90509392505050565b610c9b610c63565b73ffffffffffffffffffffffffffffffffffffffff16610cb9610804565b73ffffffffffffffffffffffffffffffffffffffff1614610d1857610cdc610c63565b6040517f118cdaa7000000000000000000000000000000000000000000000000000000008152600401610d0f91906120c2565b60405180910390fd5b565b610d22611655565b6000600760006101000a81548160ff0219169083151502179055507f5db9ee0a495bf2e6ff9c91a7834c1ba4fdd244a5e8aa4e537bd38aeae4b073aa610d66610c63565b604051610d7391906120c2565b60405180910390a1565b6000600760019054906101000a900473ffffffffffffffffffffffffffffffffffffffff16905081600760016101000a81548173ffffffffffffffffffffffffffffffffffffffff021916908373ffffffffffffffffffffffffffffffffffffffff1602179055508173ffffffffffffffffffffffffffffffffffffffff168173ffffffffffffffffffffffffffffffffffffffff167f8be0079c531659141344cd1fd0a4f28419497f9722a3daafe3b4186f6b6457e060405160405180910390a35050565b610e4b611695565b6001600760006101000a81548160ff0219169083151502179055507f62e78cea01bee320cd4e420270b5ea74000d11b0c9f74754ebdbfc544b05a258610e8f610c63565b604051610e9c91906120c2565b60405180910390a1565b600073ffffffffffffffffffffffffffffffffffffffff168273ffffffffffffffffffffffffffffffffffffffff1603610f1757816040517f5b08ba18000000000000000000000000000000000000000000000000000000008152600401610f0e91906120c2565b60405180910390fd5b80600560008573ffffffffffffffffffffffffffffffffffffffff1673ffffffffffffffffffffffffffffffffffffffff16815260200190815260200160002060008473ffffffffffffffffffffffffffffffffffffffff1673ffffffffffffffffffffffffffffffffffffffff16815260200190815260200160002060006101000a81548160ff0219169083151502179055508173ffffffffffffffffffffffffffffffffffffffff168373ffffffffffffffffffffffffffffffffffffffff167f17307eab39ab6107e8899845ad3d59bd9653f200f220920489ca2b5937696c31836040516110089190611f51565b60405180910390a3505050565b61102f8282604051806020016040528060008152506116d6565b5050565b8060066000848152602001908152602001600020908161105391906128e9565b507ff8e1a15aba9398e019f0b49df1a4fde98ee17ae345cb5f6b5e2c27f5033e8ce78260405161108391906121d8565b60405180910390a15050565b60008373ffffffffffffffffffffffffffffffffffffffff163b1115611239578273ffffffffffffffffffffffffffffffffffffffff1663150b7a02868685856040518563ffffffff1660e01b81526004016110ee9493929190612a10565b6020604051808303816000875af192505050801561112a57506040513d601f19601f820116820180604052508101906111279190612a71565b60015b6111ae573d806000811461115a576040519150601f19603f3d011682016040523d82523d6000602084013e61115f565b606091505b5060008151036111a657836040517f64a0ae9200000000000000000000000000000000000000000000000000000000815260040161119d91906120c2565b60405180910390fd5b805160208201fd5b63150b7a0260e01b7bffffffffffffffffffffffffffffffffffffffffffffffffffffffff1916817bffffffffffffffffffffffffffffffffffffffffffffffffffffffff19161461123757836040517f64a0ae9200000000000000000000000000000000000000000000000000000000815260040161122e91906120c2565b60405180910390fd5b505b5050505050565b606061124b82610b9e565b50600060066000848152602001908152602001600020805461126c906125cc565b80601f0160208091040260200160405190810160405280929190818152602001828054611298906125cc565b80156112e55780601f106112ba576101008083540402835291602001916112e5565b820191906000526020600020905b8154815290600101906020018083116112c857829003601f168201915b5050505050905060006112f66116fa565b9050600081510361130b57819250505061134e565b600082511115611340578082604051602001611328929190612ada565b6040516020818303038152906040529250505061134e565b61134984611711565b925050505b919050565b60007f80ac58cd000000000000000000000000000000000000000000000000000000007bffffffffffffffffffffffffffffffffffffffffffffffffffffffff1916827bffffffffffffffffffffffffffffffffffffffffffffffffffffffff1916148061141e57507f5b5e139f000000000000000000000000000000000000000000000000000000007bffffffffffffffffffffffffffffffffffffffffffffffffffffffff1916827bffffffffffffffffffffffffffffffffffffffffffffffffffffffff1916145b8061142e575061142d8261177a565b5b9050919050565b60006002600083815260200190815260200160002060009054906101000a900473ffffffffffffffffffffffffffffffffffffffff169050919050565b80806114ab5750600073ffffffffffffffffffffffffffffffffffffffff168273ffffffffffffffffffffffffffffffffffffffff1614155b156115df5760006114bb84610b9e565b9050600073ffffffffffffffffffffffffffffffffffffffff168373ffffffffffffffffffffffffffffffffffffffff161415801561152657508273ffffffffffffffffffffffffffffffffffffffff168173ffffffffffffffffffffffffffffffffffffffff1614155b801561153957506115378184610a23565b155b1561157b57826040517fa9fbf51f00000000000000000000000000000000000000000000000000000000815260040161157291906120c2565b60405180910390fd5b81156115dd57838573ffffffffffffffffffffffffffffffffffffffff168273ffffffffffffffffffffffffffffffffffffffff167f8c5be1e5ebec7d5bd14f71427d1e84f3dd0314c0f7b2291e5b200ac8c7c3b92560405160405180910390a45b505b836004600085815260200190815260200160002060006101000a81548173ffffffffffffffffffffffffffffffffffffffff021916908373ffffffffffffffffffffffffffffffffffffffff16021790555050505050565b6000611641611695565b61164c8484846117e4565b90509392505050565b61165d6106fb565b611693576040517f8dfc202b00000000000000000000000000000000000000000000000000000000815260040160405180910390fd5b565b61169d6106fb565b156116d4576040517fd93c066500000000000000000000000000000000000000000000000000000000815260040160405180910390fd5b565b6116e083836119fe565b6116f56116eb610c63565b600085858561108f565b505050565b606060405180602001604052806000815250905090565b606061171c82610b9e565b5060006117276116fa565b905060008151116117475760405180602001604052806000815250611772565b8061175184611af7565b604051602001611762929190612ada565b6040516020818303038152906040525b915050919050565b60007f01ffc9a7000000000000000000000000000000000000000000000000000000007bffffffffffffffffffffffffffffffffffffffffffffffffffffffff1916827bffffffffffffffffffffffffffffffffffffffffffffffffffffffff1916149050919050565b6000806117f084611435565b9050600073ffffffffffffffffffffffffffffffffffffffff168373ffffffffffffffffffffffffffffffffffffffff161461183257611831818486611bc5565b5b600073ffffffffffffffffffffffffffffffffffffffff168173ffffffffffffffffffffffffffffffffffffffff16146118c357611874600085600080611472565b6001600360008373ffffffffffffffffffffffffffffffffffffffff1673ffffffffffffffffffffffffffffffffffffffff168152602001908152602001600020600082825403925050819055505b600073ffffffffffffffffffffffffffffffffffffffff168573ffffffffffffffffffffffffffffffffffffffff1614611946576001600360008773ffffffffffffffffffffffffffffffffffffffff1673ffffffffffffffffffffffffffffffffffffffff168152602001908152602001600020600082825401925050819055505b846002600086815260200190815260200160002060006101000a81548173ffffffffffffffffffffffffffffffffffffffff021916908373ffffffffffffffffffffffffffffffffffffffff160217905550838573ffffffffffffffffffffffffffffffffffffffff168273ffffffffffffffffffffffffffffffffffffffff167fddf252ad1be2c89b69c2b068fc378daa952ba7f163c4a11628f55a4df523b3ef60405160405180910390a4809150509392505050565b600073ffffffffffffffffffffffffffffffffffffffff168273ffffffffffffffffffffffffffffffffffffffff1603611a705760006040517f64a0ae92000000000000000000000000000000000000000000000000000000008152600401611a6791906120c2565b60405180910390fd5b6000611a7e83836000610c7d565b9050600073ffffffffffffffffffffffffffffffffffffffff168173ffffffffffffffffffffffffffffffffffffffff1614611af25760006040517f73c6ac6e000000000000000000000000000000000000000000000000000000008152600401611ae991906120c2565b60405180910390fd5b505050565b606060006001611b0684611c89565b01905060008167ffffffffffffffff811115611b2557611b24612269565b5b6040519080825280601f01601f191660200182016040528015611b575781602001600182028036833780820191505090505b509050600082602083010190505b600115611bba578080600190039150507f3031323334353637383961626364656600000000000000000000000000000000600a86061a8153600a8581611bae57611bad612afe565b5b04945060008503611b65575b819350505050919050565b611bd0838383611ddc565b611c8457600073ffffffffffffffffffffffffffffffffffffffff168373ffffffffffffffffffffffffffffffffffffffff1603611c4557806040517f7e273289000000000000000000000000000000000000000000000000000000008152600401611c3c91906121d8565b60405180910390fd5b81816040517f177e802f000000000000000000000000000000000000000000000000000000008152600401611c7b929190612b2d565b60405180910390fd5b505050565b600080600090507a184f03e93ff9f4daa797ed6e38ed64bf6a1f0100000000000000008310611ce7577a184f03e93ff9f4daa797ed6e38ed64bf6a1f0100000000000000008381611cdd57611cdc612afe565b5b0492506040810190505b6d04ee2d6d415b85acef81000000008310611d24576d04ee2d6d415b85acef81000000008381611d1a57611d19612afe565b5b0492506020810190505b662386f26fc100008310611d5357662386f26fc100008381611d4957611d48612afe565b5b0492506010810190505b6305f5e1008310611d7c576305f5e1008381611d7257611d71612afe565b5b0492506008810190505b6127108310611da1576127108381611d9757611d96612afe565b5b0492506004810190505b60648310611dc45760648381611dba57611db9612afe565b5b0492506002810190505b600a8310611dd3576001810190505b80915050919050565b60008073ffffffffffffffffffffffffffffffffffffffff168373ffffffffffffffffffffffffffffffffffffffff1614158015611e9457508273ffffffffffffffffffffffffffffffffffffffff168473ffffffffffffffffffffffffffffffffffffffff161480611e555750611e548484610a23565b5b80611e9357508273ffffffffffffffffffffffffffffffffffffffff16611e7b83610c26565b73ffffffffffffffffffffffffffffffffffffffff16145b5b90509392505050565b6000604051905090565b600080fd5b600080fd5b60007fffffffff0000000000000000000000000000000000000000000000000000000082169050919050565b611ee681611eb1565b8114611ef157600080fd5b50565b600081359050611f0381611edd565b92915050565b600060208284031215611f1f57611f1e611ea7565b5b6000611f2d84828501611ef4565b91505092915050565b60008115159050919050565b611f4b81611f36565b82525050565b6000602082019050611f666000830184611f42565b92915050565b600081519050919050565b600082825260208201905092915050565b60005b83811015611fa6578082015181840152602081019050611f8b565b60008484015250505050565b6000601f19601f8301169050919050565b6000611fce82611f6c565b611fd88185611f77565b9350611fe8818560208601611f88565b611ff181611fb2565b840191505092915050565b600060208201905081810360008301526120168184611fc3565b905092915050565b6000819050919050565b6120318161201e565b811461203c57600080fd5b50565b60008135905061204e81612028565b92915050565b60006020828403121561206a57612069611ea7565b5b60006120788482850161203f565b91505092915050565b600073ffffffffffffffffffffffffffffffffffffffff82169050919050565b60006120ac82612081565b9050919050565b6120bc816120a1565b82525050565b60006020820190506120d760008301846120b3565b92915050565b6120e6816120a1565b81146120f157600080fd5b50565b600081359050612103816120dd565b92915050565b600080604083850312156121205761211f611ea7565b5b600061212e858286016120f4565b925050602061213f8582860161203f565b9150509250929050565b60008060006060848603121561216257612161611ea7565b5b6000612170868287016120f4565b9350506020612181868287016120f4565b92505060406121928682870161203f565b9150509250925092565b6000602082840312156121b2576121b1611ea7565b5b60006121c0848285016120f4565b91505092915050565b6121d28161201e565b82525050565b60006020820190506121ed60008301846121c9565b92915050565b6121fc81611f36565b811461220757600080fd5b50565b600081359050612219816121f3565b92915050565b6000806040838503121561223657612235611ea7565b5b6000612244858286016120f4565b92505060206122558582860161220a565b9150509250929050565b600080fd5b600080fd5b7f4e487b7100000000000000000000000000000000000000000000000000000000600052604160045260246000fd5b6122a182611fb2565b810181811067ffffffffffffffff821117156122c0576122bf612269565b5b80604052505050565b60006122d3611e9d565b90506122df8282612298565b919050565b600067ffffffffffffffff8211156122ff576122fe612269565b5b61230882611fb2565b9050602081019050919050565b82818337600083830152505050565b6000612337612332846122e4565b6122c9565b90508281526020810184848401111561235357612352612264565b5b61235e848285612315565b509392505050565b600082601f83011261237b5761237a61225f565b5b813561238b848260208601612324565b91505092915050565b6000602082840312156123aa576123a9611ea7565b5b600082013567ffffffffffffffff8111156123c8576123c7611eac565b5b6123d484828501612366565b91505092915050565b600067ffffffffffffffff8211156123f8576123f7612269565b5b61240182611fb2565b9050602081019050919050565b600061242161241c846123dd565b6122c9565b90508281526020810184848401111561243d5761243c612264565b5b612448848285612315565b509392505050565b600082601f8301126124655761246461225f565b5b813561247584826020860161240e565b91505092915050565b6000806000806080858703121561249857612497611ea7565b5b60006124a6878288016120f4565b94505060206124b7878288016120f4565b93505060406124c88782880161203f565b925050606085013567ffffffffffffffff8111156124e9576124e8611eac565b5b6124f587828801612450565b91505092959194509250565b6000806040838503121561251857612517611ea7565b5b6000612526858286016120f4565b925050602083013567ffffffffffffffff81111561254757612546611eac565b5b61255385828601612366565b9150509250929050565b6000806040838503121561257457612573611ea7565b5b6000612582858286016120f4565b9250506020612593858286016120f4565b9150509250929050565b7f4e487b7100000000000000000000000000000000000000000000000000000000600052602260045260246000fd5b600060028204905060018216806125e457607f821691505b6020821081036125f7576125f661259d565b5b50919050565b600060608201905061261260008301866120b3565b61261f60208301856121c9565b61262c60408301846120b3565b949350505050565b7f596f75206d7573742073656e64206d6f7265207468616e20302e30303120455460008201527f4820746f206d696e742021000000000000000000000000000000000000000000602082015250565b6000612690602b83611f77565b915061269b82612634565b604082019050919050565b600060208201905081810360008301526126bf81612683565b9050919050565b7f4e487b7100000000000000000000000000000000000000000000000000000000600052601160045260246000fd5b60006127008261201e565b91507fffffffffffffffffffffffffffffffffffffffffffffffffffffffffffffffff8203612732576127316126c6565b5b600182019050919050565b60008190508160005260206000209050919050565b60006020601f8301049050919050565b600082821b905092915050565b60006008830261279f7fffffffffffffffffffffffffffffffffffffffffffffffffffffffffffffffff82612762565b6127a98683612762565b95508019841693508086168417925050509392505050565b6000819050919050565b60006127e66127e16127dc8461201e565b6127c1565b61201e565b9050919050565b6000819050919050565b612800836127cb565b61281461280c826127ed565b84845461276f565b825550505050565b600090565b61282961281c565b6128348184846127f7565b505050565b5b818110156128585761284d600082612821565b60018101905061283a565b5050565b601f82111561289d5761286e8161273d565b61287784612752565b81016020851015612886578190505b61289a61289285612752565b830182612839565b50505b505050565b600082821c905092915050565b60006128c0600019846008026128a2565b1980831691505092915050565b60006128d983836128af565b9150826002028217905092915050565b6128f282611f6c565b67ffffffffffffffff81111561290b5761290a612269565b5b61291582546125cc565b61292082828561285c565b600060209050601f8311600181146129535760008415612941578287015190505b61294b85826128cd565b8655506129b3565b601f1984166129618661273d565b60005b8281101561298957848901518255600182019150602085019450602081019050612964565b868310156129a657848901516129a2601f8916826128af565b8355505b6001600288020188555050505b505050505050565b600081519050919050565b600082825260208201905092915050565b60006129e2826129bb565b6129ec81856129c6565b93506129fc818560208601611f88565b612a0581611fb2565b840191505092915050565b6000608082019050612a2560008301876120b3565b612a3260208301866120b3565b612a3f60408301856121c9565b8181036060830152612a5181846129d7565b905095945050505050565b600081519050612a6b81611edd565b92915050565b600060208284031215612a8757612a86611ea7565b5b6000612a9584828501612a5c565b91505092915050565b600081905092915050565b6000612ab482611f6c565b612abe8185612a9e565b9350612ace818560208601611f88565b80840191505092915050565b6000612ae68285612aa9565b9150612af28284612aa9565b91508190509392505050565b7f4e487b7100000000000000000000000000000000000000000000000000000000600052601260045260246000fd5b6000604082019050612b4260008301856120b3565b612b4f60208301846121c9565b939250505056fea2646970667358221220e92cd46a593d8bbefe948593300482b0e2ff38b2413fb6ad5b1590821a7b1c7564736f6c634300081c0033",
  "linkReferences": {},
  "deployedLinkReferences": {}
}